:020000040800F2
:1000000000000220D9010008210200082102000896
:10001000210200082102000821020008000000005F
:1000200000000000000000000000000021020008A5
:10003000210200080000000021020008BD040008A1
:100040002102000821020008210200082102000804
:1000500021020008210200082102000821020008F4
:1000600021020008210200082102000821020008E4
:1000700021020008210200082102000821020008D4
:1000800021020008210200082102000800000000EF
:100090000000000000000000000000002102000835
:1000A00021020008210200082102000821020008A4
:1000B000E9020008210200082102000821020008CC
:1000C0002102000821020008210200082102000884
:1000D000210200082102000821020008000000009F
:1000E000210200082102000821020008000000008F
:1000F00000000000000000000000000021020008D5
:10010000000000002102000821020008210200086E
:1001100000000000000000000000000000000000DF
:100120002102000821020008210200082102000823
:100130002102000800000000000000000000000094
:100140000000000000000000000000002102000884
:1001500021020008210200082102000821020008F3
:100160002102000821020008000000000000000039
:10017000000000000000000000000000000000007F
:100180000000000021020008000000000000000044
:08019000210200082102000811
:1001980010B5054C237833B9044B13B10448AFF3B9
:1001A80000800123237010BD14000020000000000F
:1001B800E004000808B5034B1BB103490348AFF33B
:1001C800008008BD0000000018000020E0040008BE
:1001D800DFF82CD00B480C490C4A002302E0D45815
:1001E800C4500433C4188C42F9D3094A094C00237B
:1001F80001E013600432A242FBD300F00FF870470D
:100208000000022000000020140000200005000863
:100218001400002034000020FEE7000010B500F0B4
:10022800C3F84FF4FA6000F037F901220D21274B8B
:10023800186800F0CDF8264C02220821206800F04A
:10024800C7F801220821206800F0E9F8214C0222B1
:100258000D21206800F0BCF801220D21206800F073
:10026800DEF81D4C00234FF480720121206800F055
:100278004DF80A2356220121206800F057F81C2364
:100288004FF4FA724FF47A511448006800F03EF8BF
:1002980019E0A2B20121104B186800F07FF80A207B
:1002A80000F010F90134FF2CF3DDFF2409E0A2B2BD
:1002B8000121094B186800F071F80A2000F002F9D2
:1002C800013C002CF3DC0024EDE700BF1000002007
:1002D800080000200C00002000000020040000207E
:1002E80010B5084C0D21206800F0C3F8B0FA80F270
:1002F80052090D21206800F0AFF8034B1B6800225B
:100308001A6110BD100000200400002010B504463A
:1003180001398162013AC26213B90123236010BD19
:1003280018460123E36000F0ABF8F6E730B5056A3C
:100338004C1E4FEA840E4FF00F0C0CFA0EFC25EA07
:100348000C0505624FEA021C4CF0080C0CF0F80C86
:10035800022915D8E4000CFA04FC8169FF2505FA86
:1003680004F421EA04014CEA0101816143F40043E9
:100378004364036A120902FA0EF21A43026230BD9C
:100388000339C9000CFA01FC8469FF2505FA01F15B
:1003980024EA01014CEA0101C161E7E70B3100EBF6
:1003A8008100426070470000084B1A6B42F0070258
:1003B8001A631A6B42F080521A631A6C42F00102F7
:1003C8001A645A6C42F001025A64704700380240BD
:1003D80010B503684FEA410C032404FA0CF423EA2D
:1003E800040302F0030E0EFA0CFE43EA0E03036048
:1003F80043684FF0010E0EFA01FE23EA0E03C2F322
:10040800800E0EFA01F1194341608460C36823EA43
:100418000403120902FA0CF21A43C26010BD07293C
:100428000CD8036A89004FF00F0C0CFA01FC23EA80
:100438000C0302FA01F1194301627047436A083953
:1004480089004FF00F0C0CFA01FC23EA0C0302FAA6
:1004580001F119434162704743694FF0010C0CFAEE
:1004680001FC23EA0C0302F001028A4013434361B2
:100478007047006901238B401840C840C0B27047DC
:10048800420900F01F00012303FA00F0014B43F872
:100498002200704700E100E001384FF0E023586186
:1004A80000229A6103211961014B1A60704700BF4D
:1004B80030000020024A136801331360704700BF00
:1004C80030000020034B1A68024B1B689B1A8342BA
:1004D800FAD3704730000020F8B500BFF8BC08BC5C
:1004E8009E467047F8B500BFF8BC08BC9E467047EA
:0404F800BD0100083A
:0404FC00990100085A
:1005000000000140000000400000024000040240E2
:04051000000802409D
:04000005080001D915
:00000001FF
