:020000040800F2
:1000000000000220D9010008210200082102000896
:10001000210200082102000821020008000000005F
:1000200000000000000000000000000021020008A5
:10003000210200080000000021020008BD030008A2
:100040002102000821020008210200082102000804
:1000500021020008210200082102000821020008F4
:1000600021020008210200082102000821020008E4
:1000700021020008210200082102000821020008D4
:1000800021020008210200082102000800000000EF
:100090000000000000000000000000002102000835
:1000A00021020008210200082102000821020008A4
:1000B0002102000821020008210200082102000894
:1000C0002102000821020008210200082102000884
:1000D000210200082102000821020008000000009F
:1000E000210200082102000821020008000000008F
:1000F00000000000000000000000000021020008D5
:10010000000000002102000821020008210200086E
:1001100000000000000000000000000000000000DF
:100120002102000821020008210200082102000823
:100130002102000800000000000000000000000094
:100140000000000000000000000000002102000884
:1001500021020008210200082102000821020008F3
:100160002102000821020008000000000000000039
:10017000000000000000000000000000000000007F
:100180000000000021020008000000000000000044
:08019000210200082102000811
:1001980010B5054C237833B9044B13B10448AFF3B9
:1001A80000800123237010BD0C0000200000000017
:1001B800E003000808B5034B1BB103490348AFF33C
:1001C800008008BD0000000010000020E0030008C7
:1001D800DFF82CD00B480C490C4A002302E0D45815
:1001E800C4500433C4188C42F9D3094A094C00237B
:1001F80001E013600432A242FBD300F00EF870470E
:1002080000000220000000200C000020000400086C
:100218000C0000202C000020FEE708B500F026F8AE
:1002280000F0BAF801220D21022000F075F8012231
:100238000D21022000F09EF84FF4FA7000F0C2F889
:1002480000220D21022000F095F84FF4FA7000F01A
:10025800B9F8ECE7044B1A6842F4E0621A601A68CD
:1002680042F003021A607047003C024010B5294A68
:10027800136843F480331360264B1B6813F4003F64
:10028800FAD0244B5A6842F019025A605A6842F46C
:1002980048525A605A685A605A6842F480025A6052
:1002A8005A6842F040725A601A6842F080721A60C6
:1002B800184B1B6813F0007FFAD0164CA368A36094
:1002C800A36843F4A053A360A36843F40043A36066
:1002D800A36843F4C813A360FFF7BCFFA36843F007
:1002E8000203A3600B4B9B6813F0080FFAD0094B6D
:1002F8001A6B42F007021A631A6B42F080521A63B3
:100308001A6C42F001021A645A6C42F001025A64F3
:1003180010BD00BF0038024010B5154B53F820300F
:100328001C684FEA410E032000FA0EF024EA00048C
:1003380002F0030C0CFA0EFC44EA0C041C605C6826
:100348004FF0010C0CFA01FC24EA0C0CC2F38004F7
:1003580004FA01F14CEA010159609860D96821EA70
:100368000001120902FA0EF20A43DA6010BD00BF5A
:100378000000002010B4074B53F8204063690120A7
:10038800884023EA000302F001028A4013436361B4
:1003980010BC7047000000204FF0E02343F2D40265
:1003A8005A6100229A6103211961014B1A60704752
:1003B80028000020024A136801331360704700BF09
:1003C80028000020034B1A68024B1B689B1A8342C3
:1003D800FAD3704728000020F8B500BFF8BC08BC65
:1003E8009E467047F8B500BFF8BC08BC9E467047EB
:0403F800BD0100083B
:0403FC00990100085B
:0C0400000000024000040240000802401E
:04000005080001D915
:00000001FF
