:020000040800F2
:1000000000000220D9010008210200082102000896
:10001000210200082102000821020008000000005F
:1000200000000000000000000000000021020008A5
:10003000210200080000000021020008A1030008BE
:100040002102000821020008210200082102000804
:1000500021020008210200082102000821020008F4
:1000600021020008210200082102000821020008E4
:1000700021020008210200082102000821020008D4
:1000800021020008210200082102000800000000EF
:100090000000000000000000000000002102000835
:1000A00021020008210200082102000821020008A4
:1000B0002102000821020008210200082102000894
:1000C0002102000821020008210200082102000884
:1000D000210200082102000821020008000000009F
:1000E000210200082102000821020008000000008F
:1000F00000000000000000000000000021020008D5
:10010000000000002102000821020008210200086E
:1001100000000000000000000000000000000000DF
:100120002102000821020008210200082102000823
:100130002102000800000000000000000000000094
:100140000000000000000000000000002102000884
:1001500021020008210200082102000821020008F3
:100160002102000821020008000000000000000039
:10017000000000000000000000000000000000007F
:100180000000000021020008000000000000000044
:08019000210200082102000811
:1001980010B5054C237833B9044B13B10448AFF3B9
:1001A80000800123237010BD04000020000000001F
:1001B800C403000808B5034B1BB103490348AFF358
:1001C800008008BD0000000008000020C4030008EB
:1001D800DFF82CD00B480C490C4A002302E0D45815
:1001E800C4500433C4188C42F9D3094A094C00237B
:1001F80001E013600432A242FBD300F00FF870470D
:10020800000002200000002004000020E403000891
:100218000400002024000020FEE7000008B500F0DC
:100228002BF800F0ABF801220D210C4B186800F0F8
:1002380071F80A4C01220D21206800F092F84FF461
:10024800FA7000F0B1F800220D21206800F089F85A
:100258004FF4FA7000F0A8F8EBE700BF00000020A8
:10026800044B1A6842F4E0621A601A6842F003020A
:100278001A607047003C024010B5254A136843F4E1
:1002880080331360224B1B6813F4003FFAD0204BD5
:100298005A6842F019025A605A6842F448525A6041
:1002A8005A685A605A6842F480025A605A6842F0A2
:1002B80040725A601A6842F080721A60144B1B68C8
:1002C80013F0007FFAD0124CA368A360A36843F42C
:1002D800A053A360A36843F40043A360A36843F456
:1002E800C813A360FFF7BCFFA36843F00203A36031
:1002F800074B9B6813F0080FFAD0054B1A6B42F0B6
:1003080007021A631A6B42F080521A6310BD00BFCD
:100318000038024010B503684FEA410C032404FA80
:100328000CF423EA040302F0030E0EFA0CFE43EA6F
:100338000E03036043684FF0010E0EFA01FE23EA34
:100348000E03C2F3800E0EFA01F119434160846076
:10035800C36823EA0403120902FA0CF21A43C260C2
:1003680010BD43694FF0010C0CFA01FC23EA0C03A1
:1003780002F001028A401343436170474FF0E023C3
:1003880043F2D4025A6100229A6103211961014B98
:100398001A60704720000020024A13680133136076
:1003A800704700BF20000020034B1A68024B1B68EF
:1003B8009B1A8342FAD3704720000020F8B500BF8B
:1003C800F8BC08BC9E467047F8B500BFF8BC08BC2E
:0403D8009E46704786
:0403DC00BD01000857
:0403E0009901000877
:0403E40000080240CB
:04000005080001D915
:00000001FF
