:020000040800F2
:1000000000000220D9010008210200082102000896
:10001000210200082102000821020008000000005F
:1000200000000000000000000000000021020008A5
:100030002102000800000000210200080903000856
:100040002102000821020008210200082102000804
:1000500021020008210200082102000821020008F4
:1000600021020008210200082102000821020008E4
:1000700021020008210200082102000821020008D4
:1000800021020008210200082102000800000000EF
:100090000000000000000000000000002102000835
:1000A00021020008210200082102000821020008A4
:1000B0002102000821020008210200082102000894
:1000C0002102000821020008210200082102000884
:1000D000210200082102000821020008000000009F
:1000E000210200082102000821020008000000008F
:1000F00000000000000000000000000021020008D5
:10010000000000002102000821020008210200086E
:1001100000000000000000000000000000000000DF
:100120002102000821020008210200082102000823
:100130002102000800000000000000000000000094
:100140000000000000000000000000002102000884
:1001500021020008210200082102000821020008F3
:100160002102000821020008000000000000000039
:10017000000000000000000000000000000000007F
:100180000000000021020008000000000000000044
:08019000210200082102000811
:1001980010B5054C237833B9044B13B10448AFF3B9
:1001A80000800123237010BD04000020000000001F
:1001B8002C03000808B5034B1BB103490348AFF3F0
:1001C800008008BD00000000080000202C03000883
:1001D800DFF82CD00B480C490C4A002302E0D45815
:1001E800C4500433C4188C42F9D3094A094C00237B
:1001F80001E013600432A242FBD300F00FF870470D
:100208000000022000000020040000204C03000829
:100218000400002024000020FEE7000008B500F0DC
:1002280021F84FF4FA6000F05DF801220D210C4B23
:10023800186800F023F80A4C01220D21206800F00C
:1002480044F84FF4FA7000F063F800220D2120689A
:1002580000F03BF84FF4FA7000F05AF8EBE700BFF3
:1002680000000020044B1A6B42F007021A631A6B55
:1002780042F080521A6370470038024010B5036894
:100288004FEA410C032404FA0CF423EA040302F0B5
:10029800030E0EFA0CFE43EA0E03036043684FF0A8
:1002A800010E0EFA01FE23EA0E03C2F3800E0EFAC7
:1002B80001F1194341608460C36823EA0403120909
:1002C80002FA0CF21A43C26010BD43694FF0010CE8
:1002D8000CFA01FC23EA0C0302F001028A401343E2
:1002E8004361704701384FF0E023586100229A615A
:1002F80003211961014B1A60704700BF20000020DC
:10030800024A136801331360704700BF20000020C1
:10031800034B1A68024B1B689B1A8342FAD3704737
:1003280020000020F8B500BFF8BC08BC9E46704706
:0C033800F8B500BFF8BC08BC9E4670473A
:04034400BD010008EF
:04034800990100080F
:04034C000008024063
:04000005080001D915
:00000001FF
