:020000040800F2
:1000000000000220D9010008210200082102000896
:10001000210200082102000821020008000000005F
:1000200000000000000000000000000021020008A5
:10003000210200080000000021020008510600080B
:100040002102000821020008210200082102000804
:1000500021020008210200082102000821020008F4
:1000600021020008210200082102000821020008E4
:1000700021020008210200082102000821020008D4
:1000800021020008210200082102000800000000EF
:100090000000000000000000000000002102000835
:1000A00021020008DD0300082102000821020008E7
:1000B000050400082D04000855040008210200086A
:1000C0002102000821020008210200082102000884
:1000D000210200082102000821020008000000009F
:1000E000210200082102000821020008000000008F
:1000F00000000000000000000000000021020008D5
:10010000000000002102000821020008210200086E
:1001100000000000000000000000000000000000DF
:100120002102000821020008210200082102000823
:100130002102000800000000000000000000000094
:100140000000000000000000000000002102000884
:1001500021020008210200082102000821020008F3
:100160002102000821020008000000000000000039
:10017000000000000000000000000000000000007F
:100180000000000021020008000000000000000044
:08019000210200082102000811
:1001980010B5054C237833B9044B13B10448AFF3B9
:1001A80000800123237010BD200000200000000003
:1001B8007406000808B5034B1BB103490348AFF3A5
:1001C800008008BD0000000024000020740600081C
:1001D800DFF82CD00B480C490C4A002302E0D45815
:1001E800C4500433C4188C42F9D3094A094C00237B
:1001F80001E013600432A242FBD300F01BF8704701
:1002080000000220000000202000002094060008C2
:100218002000002050000020FEE708B50D21022034
:1002280000F0ECF9B0FA80F252090D21022000F03A
:10023800D3F908BD10B500F029F900F0F7F901224B
:100248000D21022000F078F902220821002000F098
:1002580073F901220821002000F09CF902220D21E7
:10026800012000F069F901220D21104600F092F9F1
:100278004FF480620121002000F030F81423562248
:100288000121002000F060F84FF47A724CF25031EE
:10029800012000F023F81049012000F02DF819E0A2
:1002A800A20092B20121002000F08AF80A2000F092
:1002B800D3F90134FF2CF3DDFF2409E0A20092B248
:1002C8000121002000F07CF80A2000F0C5F9013C6B
:1002D800002CF3DC0024EDE723020008054B53F85B
:1002E80020300020186201399962013ADA6201224D
:1002F8001A6070470000002038B504460D46104BC0
:1003080053F82020D36843F00103D360032806D8AC
:10031800DFE800F002090D11192000F07BF9094B04
:1003280043F8245038BD1C2000F074F9F7E71D206D
:1003380000F070F9F3E71E2000F06CF9EFE700BF5A
:10034800000000203C00002030B51C4C54F8204030
:10035800206A01F1FF3E4FEA8E0C0F2505FA0CF5D5
:1003680020EA05002062100140F0080000F0F800C3
:10037800022916D84FEACE0E00FA0EF0A169FF2521
:1003880005FA0EFE21EA0E0E40EA0E00A06143F4C3
:1003980000436364236A120902FA0CF21A432262C8
:1003A80030BD0339C9008840A5694FF0FF0E0EFA29
:1003B80001F125EA01010843E061E8E700000020B7
:1003C800034B53F820300B3103EB81035A6070471D
:1003D8000000002010B5074B1C68236913F0010FBB
:1003E80004D0054B1B680BB12046984700232361B6
:1003F80010BD00BF000000203C00002010B5074BD6
:100408005C68236913F0010F04D0054B5B680BB1DE
:10041800204698470023236110BD00BF000000203C
:100428003C00002010B5074B9C68236913F0010FAE
:1004380004D0054B9B680BB12046984700232361E5
:1004480010BD00BF000000203C00002010B5074B85
:10045800DC68236913F0010F04D0054BDB680BB18E
:10046800204698470023236110BD00BF00000020EC
:100478003C000020044B1A6842F4E0621A601A68D3
:1004880042F003021A607047003C024010B5294A46
:10049800136843F480331360264B1B6813F4003F42
:1004A800FAD0244B5A6842F019025A605A6842F44A
:1004B80048525A605A685A605A6842F480025A6030
:1004C8005A6842F040725A601A6842F080721A60A4
:1004D800184B1B6813F0007FFAD0164CA368A36072
:1004E800A36843F4A053A360A36843F40043A36044
:1004F800A36843F4C813A360FFF7BCFFA36843F0E5
:100508000203A3600B4B9B6813F0080FFAD0094B4A
:100518001A6B42F007021A631A6B42F080521A6390
:100528001A6C42F001021A645A6C42F001025A64D1
:1005380010BD00BF0038024010B5154B53F82030ED
:100548001C684FEA410E032000FA0EF024EA00046A
:1005580002F0030C0CFA0EFC44EA0C041C605C6804
:100568004FF0010C0CFA01FC24EA0C0CC2F38004D5
:1005780004FA01F14CEA010159609860D96821EA4E
:100588000001120902FA0EF20A43DA6010BD00BF38
:10059800140000200F4B53F8200007290CD8036AD9
:1005A80089004FF00F0C0CFA01FC23EA0C0302FA45
:1005B80001F1194301627047436A083989004FF015
:1005C8000F0C0CFA01FC23EA0C0302FA01F119439F
:1005D800416270471400002010B4074B53F82040C4
:1005E80063690120884023EA000302F001028A407F
:1005F8001343636110BC704714000020044B53F888
:100608002030186901238B401840C840C0B2704799
:1006180014000020420900F01F00012303FA00F033
:10062800014B43F82200704700E100E04FF0E0235F
:1006380043F2D4025A6100229A6103211961014BE5
:100648001A6070474C000020024A13680133136097
:10065800704700BF4C000020034B1A68024B1B6810
:100668009B1A8342FAD370474C000020F8B500BFAC
:10067800F8BC08BC9E467047F8B500BFF8BC08BC7B
:040688009E467047D3
:04068C00BD010008A4
:0406900099010008C4
:100694000000014000000040000400400008004049
:1006A400000C004000000240000402400008024028
:04000005080001D915
:00000001FF
